S00D0000626C696E6B2E7372656307
S11300000C94FE000C9412010C9412010C94120135
S11300100C9412010C9412010C9412010C94120110
S11300200C9412010C9412010C9412010C94120100
S11300300C9412010C9412010C9412010C941201F0
S11300400C9412010C9412010C9412010C941201E0
S11300500C9412010C9412010C9412010C941201D0
S11300600C9434010C9412010C9412010C9412019E
S11300700C9412010C9412010C9412010C941201B0
S11300800C9412010C9412010C9412010C941201A0
S11300900C9412010C9412010C9412010C94120190
S11300A00C9412010C9412010C9412010C94120180
S11300B00C9412010C9412010C9412010C94120170
S11300C00C9412010C9412010C9412010C94120160
S11300D00C9412010C9412010C9412010C94120150
S11300E00C9412010C9412010C9412010C94120140
S11300F00C9412010C9412010C9412010C94120130
S11301000C9412010C9412010C9412010C9412011F
S11301100C9412010C9412010C9412010C9412010F
S11301200C9412010C9412010C9412010C941201FF
S11301300C9412010C9412010C9412010C941201EF
S11301400C9412010C9412010C9412010C941201DF
S11301500C9412010C9412010C9412010C941201CF
S11301600C9412010C9412010C9412010C941201BF
S11301700C9412010C9412010C9412010C941201AF
S11301800C9412010C9412010C9412010C9412019F
S11301900C9412010C9412010C9412010C9412018F
S11301A00C9412010C9412010C9412010C9412017F
S11301B00C9412010C9412010C9412010C9412016F
S11301C00C9412010C9412010C9412010C9412015F
S11301D00C9412010C9412010C9412010C9412014F
S11301E00C9412010C9412010C9412010C9412013F
S11301F00C9412010C9412010C94120111241FBED0
S1130200CFEFCDBFDFE3DEBF00E00CBF20E2A0E014
S1130210B0E201C01D92A530B207E1F70E9473015C
S11302200C947A010C940000E0E0F6E088E1858308
S11302308183E0E8F6E088EC85838183E0E4F6E0FE
S113024080EB818380E4828380EF868380E28687EB
S1130250E0ECF8E08FE5808381E0818387E08093A0
S1130260A2007894138208951F920F920FB60F92F2
S113027011240BB60F922F938F939F93AF93BF9339
S1130280EF93FF93A0E8B6E020E415962C9315971E
S1130290E0E0F0E292818181892B818383819181E5
S11302A08095892381839481818189278183128226
S11302B01382148216962C93A0ECB8E013968C91BA
S11302C013978083818113968C93FF91EF91BF9153
S11302D0AF919F918F912F910F900BBE0F900FBEF6
S11302E00F901F9018950E941401E0E0F0E28081C5
S10B02F08183FDCFF894FFCFD8
S9030000FC
